:020000040800F2
:10000000A80400200101000881150008FF14000861
:100010007D150008110200081119000800000000F9
:10002000000000000000000000000000A916000809
:10003000350300080000000083150008AD16000815
:100040001B0100081B0100081B0100081B01000820
:100050001B0100081B0100081B0100081B01000810
:100060001B0100081B0100081B0100081B01000800
:100070001B0100081B0100081B0100081B010008F0
:100080001B0100081B0100081B0100081B010008E0
:100090001B0100081B0100081B0100081B010008D0
:1000A0001B0100081B0100081B0100081B010008C0
:1000B0001B010008251700081B0100081B01000890
:1000C0001B0100081B0100081B0100081B010008A0
:1000D0001B0100081B0100081B0100081B01000890
:1000E0001B0100081B0100081B010008DFF80CD0F1
:1000F00000F02AF800480047F9190008A804002079
:100100000648804706480047FEE7FEE7FEE7FEE7B1
:10011000FEE7FEE7FEE7FEE7FEE7FEE7231700083F
:10012000ED000008D2B201E000F8012B491EFBD21D
:1001300070470022F6E710B513460A4604461946F2
:10014000FFF7F0FF204610BD064C074D06E0E068C3
:1001500040F0010394E8070098471034AC42F6D30E
:10016000FFF7C8FF1C1B00083C1B00082449496816
:1001700041F48031224A51601146896941F400718D
:1001800091612049096841F400011E4A116011463D
:10019000096821F4800111601B49096841F460314C
:1001A000194A116018492431096841F00501164ABD
:1001B0002432116014490839096841F00301124AD8
:1001C000083A1160002000E0401C42F210718842A1
:1001D000FADB0D490839096841F001010A4A083A79
:1001E0001160002000E0401C08498842FBDB064902
:1001F0000839096841F00401034A083A1160704760
:10020000001002400008014010240140A0860100B7
:1002100000BFFEE710B500BF09210C4800F0FAF856
:100220000028F9D15A2001F0DBFB0921074800F032
:10023000F1F808B9002010BD00BF0921034800F003
:10024000E9F80028F9D10120F5E70000000C014091
:1002500070B500251DE000BF0921104800F0DAF854
:100260000028F9D0282001F0BBFB09210B4800F041
:10027000D1F858B1012000EB4400C4B200BF0921FD
:10028000064800F0C7F80028F9D101E06006040E26
:100290006D1C082DDFDB204670BD0000000C014006
:1002A00038B50446002000900025012303220921CF
:1002B0001F4800F071F8002209211D4800F0BAF82B
:1002C000142001F083FB01220921194800F0B2F843
:1002D000FFF7A0FF58B3FFF7BBFF8DF80000FFF753
:1002E000B7FF8DF80100FFF7B3FF8DF80200FFF7AD
:1002F000AFFF8DF80300FFF7ABFF05469DF8000048
:100300009DF8011008449DF8021008449DF8031060
:100310000844A8420BD19DF8000020709DF8010010
:1003200060709DF80200A0709DF80300E07038BD79
:10033000000C0140704700000948006840F00400CC
:10034000074908600748006840F004000549086054
:100350000348006840F002000149086030BF704760
:100360000070004010ED00E0704700000848806910
:1003700040F00400064988610648006820F00F003C
:10038000044908600846006840F0030008607047B0
:100390000010024000080140F0B50446072901DCC6
:1003A000204603E0201DA1F10805E9B2164DAC423C
:1003B00006D1164DAD6945F00405144EB5610FE048
:1003C000134DAC4206D1114DAD6945F008050F4EF5
:1003D000B56105E00D4DAD6945F010050B4EB561F9
:1003E00005688E00B61C0127B740BD4305608D002F
:1003F00002FA05F58E00B61C03FA06F635430668C8
:1004000035430560F0BD00000008014000100240C7
:10041000000C014002469068C84000F0010008B19D
:10042000012070470020FCE7C26801238B405A403E
:10043000C260704710B52AB1C36801248C402343C1
:10044000C36004E0436901248C402343436110BD31
:1004500070B5044600F0A0F906462546681C10B1A8
:1004600004480078054400BF00F096F9801BA842BC
:10047000FAD370BD140000202DE9F847034600228E
:1004800094466EE14FF0010808FA02F4D1F80080BA
:1004900008EA0400A0427DD1DFF8DCA2D1F8048094
:1004A000A8EB0A09D0453AD014DCB8F1030F50D0BC
:1004B00009DCB8F1000F31D0B8F1010F1CD0B8F150
:1004C000020F49D120E0B8F1110F18D0B8F1120F86
:1004D00042D11EE0B9F5881F25D006DCB9F5803F72
:1004E00020D0B9F5801F37D11AE0B9F5001F18D018
:1004F000B9F5041F30D117E0D1F80CC02DE0D1F8C8
:100500000C8008F1040C28E0D1F80C8008F1080CEC
:1005100023E0D1F80C8008F10C0C1EE000BF00BFF6
:1005200000BF00BF00BF00BFD1F80880B8F1000FC6
:1005300002D14FF0040C0BE0D1F80880B8F1010FA4
:1005400003D14FF0080C1C6102E04FF0080C5C6115
:1005500003E04FF0000C00E000BF00BFFF2801D80F
:10056000984601E003F104084646FF2802D84FEA06
:10057000820803E0A2F108084FEA88084746D6F847
:1005800000804FF00F0909FA07F928EA09080CFA68
:1005900007F900E088E048EA0908C6F80080D1F8C9
:1005A000048008F08058B8F1805F7DD100BFDFF88B
:1005B000CC81D8F8188048F00108DFF8C091C9F85C
:1005C0001880C846D8F8188008F00108CDF80080D7
:1005D00000BF00BF4FEAB9384FEA920958F82950D6
:1005E0004FEA82784FEA18794FF00F0808FA09F8B5
:1005F00025EA0805DFF88881434502D14FF000085D
:1006000016E0DFF88081434502D14FF001080FE08A
:10061000DFF87481434502D14FF0020808E0DFF8AB
:100620006C81434502D14FF0030801E04FF004080C
:100630004FEA82794FEA197908FA09F848EA05057C
:10064000DFF84C814FEA920948F82950D1F804802C
:1006500008F48038B8F5803F0AD1DFF83881D8F83F
:10066000008048EA0008DFF82C91C9F8008009E012
:10067000DFF82081D8F8008028EA0008DFF814911C
:10068000C9F80080D1F8048008F40038B8F5003FBC
:1006900010D1DFF8008108F10408D8F8008048EA9A
:1006A0000008DFF8F09000E05AE009F10409C9F809
:1006B00000800DE0DFF8DC8008F10408D8F8008045
:1006C00028EA0008DFF8CC9009F10409C9F8008095
:1006D000D1F8048008F48018B8F5801F0ED1DFF837
:1006E000B48008F10808D8F8008048EA0008DFF86C
:1006F000A49009F10809C9F800800DE0DFF89480A2
:1007000008F10808D8F8008028EA0008DFF884908B
:1007100009F10809C9F80080D1F8048008F400182C
:10072000B8F5001F0ED1DFF86C8008F10C08D8F87E
:10073000008048EA0008DFF85C9009F10C09C9F86C
:1007400000800DE0DFF84C8008F10C08D8F800803C
:1007500028EA0008DFF83C9009F10C09C9F800808C
:10076000521CD1F8008028FA02F8B8F1000F7FF48B
:1007700089AEBDE8F88700000000111000100240AB
:1007800000080140000C014000100140001401402D
:100790000800014000040140014800687047000063
:1007A0000C00002003480068034909780844014907
:1007B000086070470C0000201400002010B50848A5
:1007C000006840F0100006490860032000F0C6F8F9
:1007D000002000F007F800F049F8002010BD0000EC
:1007E0000020024070B588B0044600250026002293
:1007F00021461D2000F074F81D2000F061F800BFB4
:100800001648C06940F002001449C8610846C06932
:1008100000F00200019000BF00BF02A903A800F091
:1008200077F900F09DF945000D48B5FBF0F0461E44
:100830000C480D49086040F2E7310B48C160466042
:1008400000210161816000F029FC20B9064800F018
:1008500059FC08B070BD0120FBE700000010024009
:1008600040420F00000400406000002008B500BFB7
:100870001148806940F001000F498861084680698D
:1008800000F00100009000BF00BF00BF0846C06933
:1008900040F08050C8610846C06900F08050009068
:1008A00000BF00BF00BF0549486820F0E06040F08D
:1008B0000070486000BF08BD001002400000014009
:1008C00001460846002809DB00F01F0301229A4078
:1008D00043099B0003F1E023C3F8002100BF7047E8
:1008E0002DE9F05F80460D461646002701F012F80C
:1008F000074639462A46334601F00700C0F1070A89
:10090000BAF1040F02D94FF0040A01E0C0F1070A5E
:10091000D14600F1040ABAF1070F02D24FF0000AE3
:1009200001E0A0F1030AD4464FF0010A0AFA09FADD
:10093000AAF1010A0AEA020A0AFA0CFA4FF0010BBC
:100940000BFA0CFBABF1010B0BEA030B4AEA0B04AD
:100950002146404600F0E6FFBDE8F09F00BF00F0F2
:100960000702064B19684FF6FF031940044B0B436F
:1009700043EA0221014B196000BF70470CED00E013
:100980000000FA0570B504460D460CB9012070BD93
:100990005A48006800F00700A8420ED25748006885
:1009A00020F007002843554908600846006800F019
:1009B0000700A84201D00120E9E7207800F00200FA
:1009C00002281DD1207800F00400042805D14C48ED
:1009D000406840F4E0604A494860207800F0080030
:1009E000082805D14648406840F4605044494860B2
:1009F0004348406820F0F000A1680843404948603F
:100A0000207800F0010078B36068012806D13C48E6
:100A1000006800F4003090B90120B8E7606802284F
:100A200006D13748006800F0007040B90120AEE7F9
:100A30003348006800F0020008B90120A7E73048F9
:100A4000406820F00300616808432D494860FFF7C3
:100A5000A3FE064609E0FFF79FFE801B41F28831A6
:100A6000884202D9032092E707E02548406800F059
:100A70000C006168B0EB810FEDD12048006800F0F8
:100A80000700A8420ED91D48006820F0070028433F
:100A90001A4908600846006800F00700A84201D023
:100AA000012074E7207800F00400042807D11448DE
:100AB000406820F4E060E16808431149486020780C
:100AC00000F00800082808D10D48406820F4605064
:100AD000216940EAC1000A49486000F061F808490C
:100AE0004968C1F30311074A515CC84006490860D0
:100AF00006480068FFF776FE002048E70020024025
:100B000000100240041B0008180000201000002004
:100B10000F2202600D4A526802F0030242600B4A43
:100B2000526802F0F0028260084A526802F4E06201
:100B3000C260064A526802F46052D2080261044A56
:100B4000126802F007020A607047000000100240BD
:100B50000020024001480068704700001800002093
:100B600000B5FFF7F7FF04494968C1F30221034AC2
:100B7000515CC84000BD000000100240141B00087A
:100B800000B5FFF7E7FF04494968C1F3C221034AF2
:100B9000515CC84000BD000000100240141B00085A
:100BA000F0B585B00FF26C0C9CE8E01001A8A0E84D
:100BB000E0101CA52D6800950021002200230024D0
:100BC0000020194D696801F00C05F5B1042D02D023
:100BD000082D19D101E0154819E001ADC1F3834694
:100BE000AC5D01F4803555B10F4D6D68C5F34045DE
:100BF0001DF805200D4D6543B5FBF2F302E00C4DE9
:100C000004FB05F3184602E000BF084800BF00BF20
:100C100005B0F0BD02030405060708090A0B0C0D18
:100C20000E0F1010010200000010024000127A00A6
:100C300000093D00F8B504460CB90120F8BD207844
:100C400000F00100002878D0F848406800F00C005F
:100C500004280CD0F548406800F00C00082811D199
:100C6000F248406800F48030B0F5803F0AD1EF4888
:100C7000006800F4003000285FD0606800285CD174
:100C80000120DBE700BF6068B0F5803F06D1E74890
:100C9000006840F48030E549086028E0606858B991
:100CA000E248006820F48030E049086008460068A7
:100CB00020F4802008601AE06068B0F5A02F0BD106
:100CC000DA48006840F48020D84908600846006887
:100CD00040F4803008600AE0D448006820F4803096
:100CE000D24908600846006820F48020086000BFF0
:100CF000606888B1FFF750FD054606E0FFF74CFD40
:100D0000401B642801D9032098E7C848006800F414
:100D100000300028F2D010E0FFF73EFD054606E067
:100D2000FFF73AFD401B642801D9032086E7BF483E
:100D3000006800F400300028F2D1207800F00200B2
:100D4000022857D1B948406800F00C0050B1B748AC
:100D5000406800F00C00082818D1B448406800F43E
:100D6000803098B9B148006800F0020020B12069D5
:100D7000012801D0012061E7AC48006820F0F800AC
:100D8000616940EAC100A949086033E02069E8B11F
:100D90000120A7490860FFF7FFFC054606E0FFF7C2
:100DA000FBFC401B022801D9032047E79F4800684D
:100DB00000F002000028F2D09C48006820F0F80003
:100DC000616940EAC1009949086013E00020984930
:100DD0000860FFF7E1FC054606E0FFF7DDFC401B7D
:100DE000022801D9032029E79048006800F002009A
:100DF0000028F2D1207800F0080008282DD1A06941
:100E0000B8B101208B490860FFF7C6FC054606E033
:100E1000FFF7C2FC401B022801D903200EE78348DC
:100E2000406A00F002000028F2D0012000F0AAFB86
:100E300013E000207F490860FFF7AEFC054606E09E
:100E4000FFF7AAFC401B022801D90320F6E67748E9
:100E5000406A00F002000028F2D1207800F004007F
:100E6000042873D100277148C06900F0805070B920
:100E700000BF6E48C06940F080506C49C8610846A8
:100E8000C06900F08050009000BF00BF01276A4891
:100E9000006800F48070B0B96748006840F4807062
:100EA00065490860FFF778FC054606E0FFF774FC2B
:100EB000401B642801D90320C0E65F48006800F4A5
:100EC00080700028F2D000BFE068012806D15748A2
:100ED000006A40F001005549086227E0E06858B90F
:100EE0005248006A20F00100504908620846006A32
:100EF00020F00400086219E0E06805280BD14B4897
:100F0000006A40F00400494908620846006A40F05F
:100F1000010008620AE04548006A20F001004349E8
:100F200008620846006A20F00400086200BFE0681A
:100F3000A0B1FFF731FC054609E0FFF72DFC401B8F
:100F400041F28831884202D9032077E622E037480F
:100F5000006A00F002000028EFD012E0FFF71CFC4E
:100F6000054608E0FFF718FC401B41F28831884233
:100F700001D9032062E62D48006A00F00200002833
:100F8000F0D1012F05D12948C06920F080502749B0
:100F9000C86100BFE069C8B32448406800F00C0095
:100FA000082860D0E069022848D10020204908665E
:100FB000FFF7F2FB054606E0FFF7EEFB401B0228B9
:100FC00001D903203AE61948006800F000700028B3
:100FD000F2D1206AB0F5803F07D11448406820F470
:100FE0000030A168084311494860D4E9080108436A
:100FF0000E49496821F4741108430C4948600120E6
:101000000B490866FFF7C8FB054607E03DE0FFF720
:10101000C3FB401B022801D903200FE603480068E8
:1010200000F000700028F2D02FE000000010024015
:1010300000004242800442420070004000201449F7
:101040000866FFF7A9FB054606E0FFF7A5FB401B76
:10105000022801D90320F1E50E48006800F0007075
:101060000028F2D111E0E069012800D1E6E5094845
:10107000466806F48031206A814204D106F470117A
:10108000606A814201D00120D8E50020D6E5000049
:1010900000004242001002407047704710B50446FD
:1010A0000CB9012010BD94F83D0028B9002084F847
:1010B0003C00204600F025F8022084F83D00211D68
:1010C000206800F037FB012084F8460000BF84F858
:1010D0003E0001213F20015540200155412001558E
:1010E00000BF00BF012084F8420043200155442086
:1010F00001554520015500BF012084F83D00002026
:10110000D0E77047014691F83D00012801D0012049
:101110007047022081F83D000868C06840F0010077
:101120000B68D860124B086898420BD00868B0F181
:10113000804F07D00F4B0868984203D00E4B0868C9
:1011400098420CD10868806800F00702062A0CD08B
:101150000868006840F001000B68186005E0086846
:10116000006840F001000B6818600020D0E7000024
:10117000002C01400004004000080040704710B5FA
:10118000044620680069C0F34000D8B12068C068F8
:10119000C0F34000B0B16FF0020021680861012087
:1011A00020772068806900F0030018B12046FFF71F
:1011B000E5FF05E0204600F0ADF8204600F0ABF872
:1011C0000020207720680069C0F38000D8B1206833
:1011D000C068C0F38000B0B16FF0040021680861FE
:1011E000022020772068806900F4407018B1204602
:1011F000FFF7C4FF05E0204600F08CF8204600F021
:101200008AF80020207720680069C0F3C000D8B1B8
:101210002068C068C0F3C000B0B16FF0080021685A
:101220000861042020772068C06900F0030018B12D
:101230002046FFF7A3FF05E0204600F06BF82046AC
:1012400000F069F80020207720680069C0F30010E2
:10125000D8B12068C068C0F30010B0B16FF01000C2
:1012600021680861082020772068C06900F4407078
:1012700018B12046FFF782FF05E0204600F04AF84B
:10128000204600F048F8002020772068006900F030
:10129000010058B12068C06800F0010030B16FF063
:1012A000010021680861204600F036F820680069D6
:1012B000C0F3C01058B12068C068C0F3C01030B18E
:1012C0006FF08000216808612046FFF7E5FE206886
:1012D0000069C0F3801058B12068C068C0F3801066
:1012E00030B16FF0400021680861204600F020F81E
:1012F00020680069C0F3401058B12068C068C0F38E
:10130000401030B16FF02000216808612046FFF7DF
:10131000C4FE10BD7047704710B5044603492068ED
:10132000884201D1FFF73EFA10BD000000040040E2
:10133000704710B504460CB9012010BDA06900B17A
:1013400000E000BF94F83D0028B9002084F83C007C
:10135000204600F027F8242084F83D002068C0686B
:1013600020F400502168C860204600F01DFA206873
:10137000006920F49040216808612068406920F0ED
:101380002A00216848612068C06840F40050216844
:10139000C86000202064202084F83D0084F83E00CE
:1013A0000020CAE710B586B00446002002900390E2
:1013B000049005901A49206888422ED100BF194830
:1013C000806940F48040174988610846806900F4CC
:1013D0008040019000BF00BF00BF0846806940F018
:1013E000040088610846806900F00400019000BF95
:1013F00000BF48150290022003900320059002A927
:101400000948FFF739F84FF48060029000200390FC
:10141000049002A90448FFF72FF806B010BD0000A1
:101420000038014000100240000801402DE9F84F4B
:1014300004460E46174699464FF0000A94F83D00C0
:1014400020285AD106B117B90120BDE8F88F00BF96
:1014500094F83C00012801D10220F6E7012084F82D
:101460003C0000BF00202064212084F83D00FFF7ED
:1014700093F98246A784E784A068B0F5805F04D121
:10148000206910B90025B04602E035464FF000084B
:1014900000BF002084F83C0000BF1BE05346002240
:1014A00080212046CDF8009000F0FCF908B103201F
:1014B000CBE745B9B8F80000C0F3080021684860E0
:1014C00008F1020803E02878216848606D1CE08C70
:1014D000401EE084E08C0028E0D1534600224021E9
:1014E0002046CDF8009000F0DDF908B10320ACE70C
:1014F000202084F83D000020A7E70220A5E700BFD8
:10150000FEE7000008B500BF0D48806940F02000EC
:101510000B4988610846806900F02000009000BFF8
:1015200000BF00BF0846806940F00400886108469B
:10153000806900F00400009000BF00BF08BD0000FB
:101540000010024010B50B480B4908604FF41650CC
:101550004860002108488160C16001610C2141613F
:1015600000218161C161FFF7E4FE08B1FEF7FCFED6
:1015700010BD0000003801401C00002000BFFEE745
:101580007047704708B508490968C9084FF47A726E
:10159000B1FBF2F14143009100BF00BF00994A1E28
:1015A00000920029F9D108BD180000203B4840688E
:1015B00000F0020098B13948406820F00200374935
:1015C00048603748006820F008003549086000BFCF
:1015D0003348006800F008000028F9D05CE031488A
:1015E000006A40F480302F4908620846006A20F4FF
:1015F000803008620846406A20F0010048620846D0
:10160000406A40F00100486200BF2648406AC0F3CB
:1016100040000028F9D02348006A40F400702149B6
:1016200008620846006A40F4004008621C480068EE
:1016300020F008001A49086000BF19480068C0F38C
:10164000C0000028F9D000BF15480068C0F3401062
:101650000028F9D01248006840F0100010490860D6
:101660000020091D086049F63F40091D08600C482C
:10167000001F006840F002000949091F0860081DAA
:10168000006820F01000091D086000BF04480068D1
:10169000C0F340100028F9D07047000000700040EF
:1016A0000428004000100240704700000248006813
:1016B000401C0149086070470800002000B58FB049
:1016C000282105A8FEF735FD14216846FEF731FDF7
:1016D0000120059000040690002007900120099049
:1016E00002200C90C1030D914FF4E0110E9105A85A
:1016F000FFF7A0FA08B1FEF737FE0F200090022096
:101700000190002002904FF480600390002004902C
:1017100002216846FFF736F908B1FEF725FE0FB043
:1017200000BD704710B50248FFF729FD10BD00004D
:101730006000002010B50268184B984208D0B0F144
:10174000804F05D0164B984202D0164B984203D1D9
:1017500022F070024B681A43104B984208D0B0F147
:10176000804F05D00E4B984202D00E4B984203D1C9
:1017700022F44072CB681A4322F080034C6943EA9A
:10178000040202608B68C3620B688362034B984259
:1017900001D10B6903630123436110BD002C01409B
:1017A000000400400008004070B504462168096943
:1017B00021F44051E2681143226811612269A16855
:1017C0001143626941EA02052168C96841F20C626D
:1017D000914329432268D1602168496921F440710D
:1017E000A2691143226851612D4A2168914202D1B8
:1017F000FFF7C6F901E0FFF7B3F900EBC00101EB19
:10180000001162689200B1FBF2F100EBC00202EB42
:10181000001263689B00B2FBF3F26423B2FBF3F2A5
:1018200002EBC20303EB0212A1EB8201322202EBB4
:1018300001116422B1FBF2F101F0F00100EBC002F2
:1018400002EB001263689B00B2FBF3F26423B2FB6D
:10185000F3F201EB021200EBC00101EB001163682F
:101860009B00B1FBF3F100EBC00303EB00136668D0
:10187000B600B3FBF6F36426B3FBF6F303EBC30643
:1018800006EB0313A1EB8301322303EB0111642365
:10189000B1FBF3F101F00F0111442268916070BDBA
:1018A000003801402DE9F04104460D4617469846A0
:1018B000069E21E0701CF8B12EB1FEF76DFFA0EB83
:1018C0000800B04218D92068C06820F4D0702168A0
:1018D000C8602068406920F001002168486120202C
:1018E00084F83D0084F83E0000BF002084F83C00EE
:1018F00000BF0320BDE8F081206800682840A842AE
:1019000001D1012000E00020B842D3D00020F1E74F
:1019100000BFFEE702480068C0F3022070470000E5
:101920000CED00E010B5002804DB0A07130E054A91
:10193000135406E00A07140E034A00F00F031B1F9E
:10194000D45410BD00E400E018ED00E002E008C847
:10195000121F08C1002AFAD170477047002001E029
:1019600001C1121F002AFBD17047000030B5134897
:101970000068134AB0FBF2F1481EB0F1807F00D33B
:101980001BE0481E4FF0E022506150170F22002844
:1019900004DB13071C0E0B4B1C5406E013071D0E33
:1019A000094B00F00F04241F1D5500BF00204FF00D
:1019B000E02290610720106100BF30BD18000020B8
:1019C00040420F0000E400E018ED00E000B50346DF
:1019D0004FF47A7103FB01F000F002F800BD000043
:1019E0000021044A116000BF024909688142FBDB03
:1019F000704700000800002010B5FEF7DFFEFFF77B
:101A00005DFEFFF77FFDFFF79DFDFFF7AFFF0023B2
:101A1000032219463448FEF7BFFC3448C06940F041
:101A2000C0503249C8613248006840F48070304983
:101A300008600846006840F0040008600846006836
:101A400040F008000860FEF791FCFFF7AFFD294861
:101A5000006820F001002749086000BF25480068A1
:101A600000F001000028F9D02248006840F0100082
:101A70002049086000201F491C310860081F0068C9
:101A8000401D091D08601B48006820F0100019491E
:101A9000086000BF17480068C0F340100028F9D064
:101AA000FEF764FB1448FEF7FBFB1448006812497C
:101AB000087112480068000A48714FF47A730622D0
:101AC0000F48FFF7B3FC03E000210748FEF7ACFC2A
:101AD0000848183000680328F6D16420FEF7B8FCE7
:101AE000FEF72AFC002010BD000801400010024053
:101AF0000070004004280040000000204C240140F9
:101B00001C0000200000000000000000010203048F
:101B10000607080900000000010203043C1B00083E
:101B2000000000201C0000004C190008581B000891
:101B30001C0000208C0400005C190008000000005C
:101B40000000000000000000000000001000000085
:081B5000010000000024F40074
:04000005080000ED02
:00000001FF
